{
  "_format": "hh-sol-artifact-1",
  "contractName": "Vote",
  "sourceName": "contracts/Vote.sol",
  "abi": [
    {
      "inputs": [],
      "stateMutability": "nonpayable",
      "type": "constructor"
    },
    {
      "inputs": [],
      "name": "GetOptions",
      "outputs": [
        {
          "components": [
            {
              "internalType": "uint256",
              "name": "id",
              "type": "uint256"
            },
            {
              "internalType": "uint256",
              "name": "SubjectId",
              "type": "uint256"
            },
            {
              "internalType": "string",
              "name": "name",
              "type": "string"
            },
            {
              "internalType": "string",
              "name": "description",
              "type": "string"
            },
            {
              "internalType": "uint256",
              "name": "votes",
              "type": "uint256"
            }
          ],
          "internalType": "struct Vote.Option[]",
          "name": "",
          "type": "tuple[]"
        }
      ],
      "stateMutability": "view",
      "type": "function"
    },
    {
      "inputs": [],
      "name": "GetSubjects",
      "outputs": [
        {
          "components": [
            {
              "internalType": "uint256",
              "name": "id",
              "type": "uint256"
            },
            {
              "internalType": "string",
              "name": "name",
              "type": "string"
            },
            {
              "internalType": "string",
              "name": "description",
              "type": "string"
            }
          ],
          "internalType": "struct Vote.Subject[]",
          "name": "",
          "type": "tuple[]"
        }
      ],
      "stateMutability": "view",
      "type": "function"
    },
    {
      "inputs": [],
      "name": "GetVotes",
      "outputs": [
        {
          "components": [
            {
              "internalType": "uint256",
              "name": "id",
              "type": "uint256"
            },
            {
              "internalType": "uint256",
              "name": "Option",
              "type": "uint256"
            },
            {
              "internalType": "address",
              "name": "Voter",
              "type": "address"
            }
          ],
          "internalType": "struct Vote.UserVote[]",
          "name": "",
          "type": "tuple[]"
        }
      ],
      "stateMutability": "view",
      "type": "function"
    },
    {
      "inputs": [],
      "name": "Test",
      "outputs": [
        {
          "internalType": "string",
          "name": "",
          "type": "string"
        }
      ],
      "stateMutability": "pure",
      "type": "function"
    },
    {
      "inputs": [
        {
          "internalType": "string",
          "name": "_name",
          "type": "string"
        },
        {
          "internalType": "string",
          "name": "_description",
          "type": "string"
        },
        {
          "internalType": "uint256",
          "name": "_subjectId",
          "type": "uint256"
        }
      ],
      "name": "createOption",
      "outputs": [],
      "stateMutability": "nonpayable",
      "type": "function"
    },
    {
      "inputs": [
        {
          "internalType": "string",
          "name": "_name",
          "type": "string"
        },
        {
          "internalType": "string",
          "name": "_description",
          "type": "string"
        }
      ],
      "name": "createSubject",
      "outputs": [],
      "stateMutability": "nonpayable",
      "type": "function"
    },
    {
      "inputs": [
        {
          "internalType": "uint256",
          "name": "",
          "type": "uint256"
        }
      ],
      "name": "options",
      "outputs": [
        {
          "internalType": "uint256",
          "name": "id",
          "type": "uint256"
        },
        {
          "internalType": "uint256",
          "name": "SubjectId",
          "type": "uint256"
        },
        {
          "internalType": "string",
          "name": "name",
          "type": "string"
        },
        {
          "internalType": "string",
          "name": "description",
          "type": "string"
        },
        {
          "internalType": "uint256",
          "name": "votes",
          "type": "uint256"
        }
      ],
      "stateMutability": "view",
      "type": "function"
    },
    {
      "inputs": [
        {
          "internalType": "uint256",
          "name": "",
          "type": "uint256"
        }
      ],
      "name": "subjects",
      "outputs": [
        {
          "internalType": "uint256",
          "name": "id",
          "type": "uint256"
        },
        {
          "internalType": "string",
          "name": "name",
          "type": "string"
        },
        {
          "internalType": "string",
          "name": "description",
          "type": "string"
        }
      ],
      "stateMutability": "view",
      "type": "function"
    },
    {
      "inputs": [
        {
          "internalType": "uint256",
          "name": "_optionId",
          "type": "uint256"
        }
      ],
      "name": "userVote",
      "outputs": [],
      "stateMutability": "nonpayable",
      "type": "function"
    },
    {
      "inputs": [
        {
          "internalType": "uint256",
          "name": "",
          "type": "uint256"
        }
      ],
      "name": "votes",
      "outputs": [
        {
          "internalType": "uint256",
          "name": "id",
          "type": "uint256"
        },
        {
          "internalType": "uint256",
          "name": "Option",
          "type": "uint256"
        },
        {
          "internalType": "address",
          "name": "Voter",
          "type": "address"
        }
      ],
      "stateMutability": "view",
      "type": "function"
    }
  ],
  "bytecode": "0x6080604052348015600f57600080fd5b5060006003819055506000600481905550600060058190555061212f806100376000396000f3fe608060405234801561001057600080fd5b506004361061009e5760003560e01c806378569de61161006657806378569de6146101755780639fc699cf14610191578063a163a624146101af578063be5e28f0146101cd578063f13447f9146101e95761009e565b806312e2dd93146100a35780632c7424af146100bf578063409e2205146100f1578063506e74f5146101255780635df8133014610143575b600080fd5b6100bd60048036038101906100b891906111c7565b610207565b005b6100d960048036038101906100d491906111c7565b6104ec565b6040516100e893929190611293565b60405180910390f35b61010b600480360381019061010691906111c7565b610636565b60405161011c9594939291906112d8565b60405180910390f35b61012d61078c565b60405161013a919061147a565b60405180910390f35b61015d600480360381019061015891906111c7565b610855565b60405161016c939291906114ab565b60405180910390f35b61018f600480360381019061018a9190611547565b6108af565b005b610199610ab4565b6040516101a69190611751565b60405180910390f35b6101b7610c55565b6040516101c49190611773565b60405180910390f35b6101e760048036038101906101e29190611795565b610c92565b005b6101f1610f73565b6040516101fe9190611943565b60405180910390f35b600454811161024b576040517f08c379a0000000000000000000000000000000000000000000000000000000008152600401610242906119b1565b60405180910390fd5b60005b6002805490508110156103b4576002818154811061026f5761026e6119d1565b5b9060005260206000209060030201600101546040516020016102919190611a21565b60405160208183030381529060405280519060200120826040516020016102b89190611a21565b60405160208183030381529060405280519060200120036103a757336040516020016102e49190611a84565b604051602081830303815290604052805190602001206002828154811061030e5761030d6119d1565b5b906000526020600020906003020160020160009054906101000a900473ffffffffffffffffffffffffffffffffffffffff166040516020016103509190611a84565b60405160208183030381529060405280519060200120036103a6576040517f08c379a000000000000000000000000000000000000000000000000000000000815260040161039d90611aeb565b60405180910390fd5b5b808060010191505061024e565b5060018082815481106103ca576103c96119d1565b5b906000526020600020906005020160040160008282546103ea9190611b3a565b925050819055506103f9611100565b6005548160000181815250508181602001818152505033816040019073ffffffffffffffffffffffffffffffffffffffff16908173ffffffffffffffffffffffffffffffffffffffff16815250506002819080600181540180825580915050600190039060005260206000209060030201600090919091909150600082015181600001556020820151816001015560408201518160020160006101000a81548173ffffffffffffffffffffffffffffffffffffffff021916908373ffffffffffffffffffffffffffffffffffffffff1602179055505050600560008154809291906104e390611b6e565b91905055505050565b600081815481106104fc57600080fd5b906000526020600020906003020160009150905080600001549080600101805461052590611be5565b80601f016020809104026020016040519081016040528092919081815260200182805461055190611be5565b801561059e5780601f106105735761010080835404028352916020019161059e565b820191906000526020600020905b81548152906001019060200180831161058157829003601f168201915b5050505050908060020180546105b390611be5565b80601f01602080910402602001604051908101604052809291908181526020018280546105df90611be5565b801561062c5780601f106106015761010080835404028352916020019161062c565b820191906000526020600020905b81548152906001019060200180831161060f57829003601f168201915b5050505050905083565b6001818154811061064657600080fd5b906000526020600020906005020160009150905080600001549080600101549080600201805461067590611be5565b80601f01602080910402602001604051908101604052809291908181526020018280546106a190611be5565b80156106ee5780601f106106c3576101008083540402835291602001916106ee565b820191906000526020600020905b8154815290600101906020018083116106d157829003601f168201915b50505050509080600301805461070390611be5565b80601f016020809104026020016040519081016040528092919081815260200182805461072f90611be5565b801561077c5780601f106107515761010080835404028352916020019161077c565b820191906000526020600020905b81548152906001019060200180831161075f57829003601f168201915b5050505050908060040154905085565b60606002805480602002602001604051908101604052809291908181526020016000905b8282101561084c578382906000526020600020906003020160405180606001604052908160008201548152602001600182015481526020016002820160009054906101000a900473ffffffffffffffffffffffffffffffffffffffff1673ffffffffffffffffffffffffffffffffffffffff1673ffffffffffffffffffffffffffffffffffffffff1681525050815260200190600101906107b0565b50505050905090565b6002818154811061086557600080fd5b90600052602060002090600302016000915090508060000154908060010154908060020160009054906101000a900473ffffffffffffffffffffffffffffffffffffffff16905083565b60005b6000805490508110156109805784846040516020016108d2929190611c55565b60405160208183030381529060405280519060200120600082815481106108fc576108fb6119d1565b5b906000526020600020906003020160010160405160200161091d9190611d06565b6040516020818303038152906040528051906020012003610973576040517f08c379a000000000000000000000000000000000000000000000000000000000815260040161096a90611d69565b60405180910390fd5b80806001019150506108b2565b50610989611137565b60035481600001818152505082828080601f016020809104026020016040519081016040528093929190818152602001838380828437600081840152601f19601f82011690508083019250505050505050816040018190525084848080601f016020809104026020016040519081016040528093929190818152602001838380828437600081840152601f19601f8201169050808301925050505050505081602001819052506000819080600181540180825580915050600190039060005260206000209060030201600090919091909150600082015181600001556020820151816001019081610a7a9190611f4f565b506040820151816002019081610a909190611f4f565b505050600160036000828254610aa69190611b3a565b925050819055505050505050565b60606001805480602002602001604051908101604052809291908181526020016000905b82821015610c4c57838290600052602060002090600502016040518060a00160405290816000820154815260200160018201548152602001600282018054610b1f90611be5565b80601f0160208091040260200160405190810160405280929190818152602001828054610b4b90611be5565b8015610b985780601f10610b6d57610100808354040283529160200191610b98565b820191906000526020600020905b815481529060010190602001808311610b7b57829003601f168201915b50505050508152602001600382018054610bb190611be5565b80601f0160208091040260200160405190810160405280929190818152602001828054610bdd90611be5565b8015610c2a5780601f10610bff57610100808354040283529160200191610c2a565b820191906000526020600020905b815481529060010190602001808311610c0d57829003601f168201915b5050505050815260200160048201548152505081526020019060010190610ad8565b50505050905090565b60606040518060400160405280600481526020017f7465737400000000000000000000000000000000000000000000000000000000815250905090565b6003548111610cd6576040517f08c379a0000000000000000000000000000000000000000000000000000000008152600401610ccd9061206d565b60405180910390fd5b60005b600080549050811015610e20578585604051602001610cf9929190611c55565b6040516020818303038152906040528051906020012060018281548110610d2357610d226119d1565b5b9060005260206000209060050201600201604051602001610d449190611d06565b6040516020818303038152906040528051906020012003610e135781604051602001610d709190611a21565b6040516020818303038152906040528051906020012060018281548110610d9a57610d996119d1565b5b906000526020600020906005020160010154604051602001610dbc9190611a21565b6040516020818303038152906040528051906020012003610e12576040517f08c379a0000000000000000000000000000000000000000000000000000000008152600401610e09906120d9565b60405180910390fd5b5b8080600101915050610cd9565b50610e29611158565b60045481600001818152505083838080601f016020809104026020016040519081016040528093929190818152602001838380828437600081840152601f19601f82011690508083019250505050505050816060018190525085858080601f016020809104026020016040519081016040528093929190818152602001838380828437600081840152601f19601f82011690508083019250505050505050816040018190525081816020018181525050600181908060018154018082558091505060019003906000526020600020906005020160009091909190915060008201518160000155602082015181600101556040820151816002019081610f2e9190611f4f565b506060820151816003019081610f449190611f4f565b50608082015181600401555050600160046000828254610f649190611b3a565b92505081905550505050505050565b60606000805480602002602001604051908101604052809291908181526020016000905b828210156110f7578382906000526020600020906003020160405180606001604052908160008201548152602001600182018054610fd490611be5565b80601f016020809104026020016040519081016040528092919081815260200182805461100090611be5565b801561104d5780601f106110225761010080835404028352916020019161104d565b820191906000526020600020905b81548152906001019060200180831161103057829003601f168201915b5050505050815260200160028201805461106690611be5565b80601f016020809104026020016040519081016040528092919081815260200182805461109290611be5565b80156110df5780601f106110b4576101008083540402835291602001916110df565b820191906000526020600020905b8154815290600101906020018083116110c257829003601f168201915b50505050508152505081526020019060010190610f97565b50505050905090565b60405180606001604052806000815260200160008152602001600073ffffffffffffffffffffffffffffffffffffffff1681525090565b60405180606001604052806000815260200160608152602001606081525090565b6040518060a0016040528060008152602001600081526020016060815260200160608152602001600081525090565b600080fd5b600080fd5b6000819050919050565b6111a481611191565b81146111af57600080fd5b50565b6000813590506111c18161119b565b92915050565b6000602082840312156111dd576111dc611187565b5b60006111eb848285016111b2565b91505092915050565b6111fd81611191565b82525050565b600081519050919050565b600082825260208201905092915050565b60005b8381101561123d578082015181840152602081019050611222565b60008484015250505050565b6000601f19601f8301169050919050565b600061126582611203565b61126f818561120e565b935061127f81856020860161121f565b61128881611249565b840191505092915050565b60006060820190506112a860008301866111f4565b81810360208301526112ba818561125a565b905081810360408301526112ce818461125a565b9050949350505050565b600060a0820190506112ed60008301886111f4565b6112fa60208301876111f4565b818103604083015261130c818661125a565b90508181036060830152611320818561125a565b905061132f60808301846111f4565b9695505050505050565b600081519050919050565b600082825260208201905092915050565b6000819050602082019050919050565b61136e81611191565b82525050565b600073ffffffffffffffffffffffffffffffffffffffff82169050919050565b600061139f82611374565b9050919050565b6113af81611394565b82525050565b6060820160008201516113cb6000850182611365565b5060208201516113de6020850182611365565b5060408201516113f160408501826113a6565b50505050565b600061140383836113b5565b60608301905092915050565b6000602082019050919050565b600061142782611339565b6114318185611344565b935061143c83611355565b8060005b8381101561146d57815161145488826113f7565b975061145f8361140f565b925050600181019050611440565b5085935050505092915050565b60006020820190508181036000830152611494818461141c565b905092915050565b6114a581611394565b82525050565b60006060820190506114c060008301866111f4565b6114cd60208301856111f4565b6114da604083018461149c565b949350505050565b600080fd5b600080fd5b600080fd5b60008083601f840112611507576115066114e2565b5b8235905067ffffffffffffffff811115611524576115236114e7565b5b6020830191508360018202830111156115405761153f6114ec565b5b9250929050565b6000806000806040858703121561156157611560611187565b5b600085013567ffffffffffffffff81111561157f5761157e61118c565b5b61158b878288016114f1565b9450945050602085013567ffffffffffffffff8111156115ae576115ad61118c565b5b6115ba878288016114f1565b925092505092959194509250565b600081519050919050565b600082825260208201905092915050565b6000819050602082019050919050565b600082825260208201905092915050565b600061161082611203565b61161a81856115f4565b935061162a81856020860161121f565b61163381611249565b840191505092915050565b600060a0830160008301516116566000860182611365565b5060208301516116696020860182611365565b50604083015184820360408601526116818282611605565b9150506060830151848203606086015261169b8282611605565b91505060808301516116b06080860182611365565b508091505092915050565b60006116c7838361163e565b905092915050565b6000602082019050919050565b60006116e7826115c8565b6116f181856115d3565b935083602082028501611703856115e4565b8060005b8581101561173f578484038952815161172085826116bb565b945061172b836116cf565b925060208a01995050600181019050611707565b50829750879550505050505092915050565b6000602082019050818103600083015261176b81846116dc565b905092915050565b6000602082019050818103600083015261178d818461125a565b905092915050565b6000806000806000606086880312156117b1576117b0611187565b5b600086013567ffffffffffffffff8111156117cf576117ce61118c565b5b6117db888289016114f1565b9550955050602086013567ffffffffffffffff8111156117fe576117fd61118c565b5b61180a888289016114f1565b9350935050604061181d888289016111b2565b9150509295509295909350565b600081519050919050565b600082825260208201905092915050565b6000819050602082019050919050565b600060608301600083015161186e6000860182611365565b50602083015184820360208601526118868282611605565b915050604083015184820360408601526118a08282611605565b9150508091505092915050565b60006118b98383611856565b905092915050565b6000602082019050919050565b60006118d98261182a565b6118e38185611835565b9350836020820285016118f585611846565b8060005b85811015611931578484038952815161191285826118ad565b945061191d836118c1565b925060208a019950506001810190506118f9565b50829750879550505050505092915050565b6000602082019050818103600083015261195d81846118ce565b905092915050565b7f4f7074696f6e20646f206e6f7420657869737400000000000000000000000000600082015250565b600061199b60138361120e565b91506119a682611965565b602082019050919050565b600060208201905081810360008301526119ca8161198e565b9050919050565b7f4e487b7100000000000000000000000000000000000000000000000000000000600052603260045260246000fd5b6000819050919050565b611a1b611a1682611191565b611a00565b82525050565b6000611a2d8284611a0a565b60208201915081905092915050565b60008160601b9050919050565b6000611a5482611a3c565b9050919050565b6000611a6682611a49565b9050919050565b611a7e611a7982611394565b611a5b565b82525050565b6000611a908284611a6d565b60148201915081905092915050565b7f596f7520616c726561647920766f746564210000000000000000000000000000600082015250565b6000611ad560128361120e565b9150611ae082611a9f565b602082019050919050565b60006020820190508181036000830152611b0481611ac8565b9050919050565b7f4e487b7100000000000000000000000000000000000000000000000000000000600052601160045260246000fd5b6000611b4582611191565b9150611b5083611191565b9250828201905080821115611b6857611b67611b0b565b5b92915050565b6000611b7982611191565b91507fffffffffffffffffffffffffffffffffffffffffffffffffffffffffffffffff8203611bab57611baa611b0b565b5b600182019050919050565b7f4e487b7100000000000000000000000000000000000000000000000000000000600052602260045260246000fd5b60006002820490506001821680611bfd57607f821691505b602082108103611c1057611c0f611bb6565b5b50919050565b600081905092915050565b82818337600083830152505050565b6000611c3c8385611c16565b9350611c49838584611c21565b82840190509392505050565b6000611c62828486611c30565b91508190509392505050565b60008190508160005260206000209050919050565b60008154611c9081611be5565b611c9a8186611c16565b94506001821660008114611cb55760018114611cca57611cfd565b60ff1983168652811515820286019350611cfd565b611cd385611c6e565b60005b83811015611cf557815481890152600182019150602081019050611cd6565b838801955050505b50505092915050565b6000611d128284611c83565b915081905092915050565b7f537562626a65637420616c647265616479206578697374210000000000000000600082015250565b6000611d5360188361120e565b9150611d5e82611d1d565b602082019050919050565b60006020820190508181036000830152611d8281611d46565b9050919050565b7f4e487b7100000000000000000000000000000000000000000000000000000000600052604160045260246000fd5b60006020601f8301049050919050565b600082821b905092915050565b600060088302611e057fffffffffffffffffffffffffffffffffffffffffffffffffffffffffffffffff82611dc8565b611e0f8683611dc8565b95508019841693508086168417925050509392505050565b6000819050919050565b6000611e4c611e47611e4284611191565b611e27565b611191565b9050919050565b6000819050919050565b611e6683611e31565b611e7a611e7282611e53565b848454611dd5565b825550505050565b600090565b611e8f611e82565b611e9a818484611e5d565b505050565b5b81811015611ebe57611eb3600082611e87565b600181019050611ea0565b5050565b601f821115611f0357611ed481611c6e565b611edd84611db8565b81016020851015611eec578190505b611f00611ef885611db8565b830182611e9f565b50505b505050565b600082821c905092915050565b6000611f2660001984600802611f08565b1980831691505092915050565b6000611f3f8383611f15565b9150826002028217905092915050565b611f5882611203565b67ffffffffffffffff811115611f7157611f70611d89565b5b611f7b8254611be5565b611f86828285611ec2565b600060209050601f831160018114611fb95760008415611fa7578287015190505b611fb18582611f33565b865550612019565b601f198416611fc786611c6e565b60005b82811015611fef57848901518255600182019150602085019450602081019050611fca565b8683101561200c5784890151612008601f891682611f15565b8355505b6001600288020188555050505b505050505050565b7f5375626a65637420646f206e6f74206578697374210000000000000000000000600082015250565b600061205760158361120e565b915061206282612021565b602082019050919050565b600060208201905081810360008301526120868161204a565b9050919050565b7f4f7074696f6e20616c7265616479206578697374000000000000000000000000600082015250565b60006120c360148361120e565b91506120ce8261208d565b602082019050919050565b600060208201905081810360008301526120f2816120b6565b905091905056fea2646970667358221220f38d4bfecdf6b0324e775825f0f2dc92276cd42ebb00f628d2c9e89437ede62564736f6c634300081a0033",
  "linkReferences": {},
  "deployedLinkReferences": {}
}